{"contracts/SubdomainRegister9.sol":{"SubdomainRegister9":{"abi":[{"inputs":[{"internalType":"address","name":"_nameWrapper","type":"address"},{"internalType":"address","name":"_resolver","type":"address"},{"internalType":"bytes32","name":"_parentNode","type":"bytes32"},{"internalType":"uint256","name":"_registrationFee","type":"uint256"},{"internalType":"address","name":"_feeRecipient","type":"address"}],"stateMutability":"nonpayable","type":"constructor"},{"anonymous":false,"inputs":[{"indexed":false,"internalType":"address","name":"newRecipient","type":"address"}],"name":"FeeRecipientUpdated","type":"event"},{"anonymous":false,"inputs":[{"indexed":false,"internalType":"uint256","name":"newFee","type":"uint256"}],"name":"FeeUpdated","type":"event"},{"anonymous":false,"inputs":[{"indexed":true,"internalType":"address","name":"previousOwner","type":"address"},{"indexed":true,"internalType":"address","name":"newOwner","type":"address"}],"name":"OwnershipTransferred","type":"event"},{"anonymous":false,"inputs":[{"indexed":true,"internalType":"bytes32","name":"parentNode","type":"bytes32"},{"indexed":false,"internalType":"string","name":"label","type":"string"},{"indexed":true,"internalType":"address","name":"owner","type":"address"}],"name":"SubdomainRegistered","type":"event"},{"inputs":[],"name":"checkApproval","outputs":[{"internalType":"bool","name":"","type":"bool"}],"stateMutability":"view","type":"function"},{"inputs":[],"name":"feeRecipient","outputs":[{"internalType":"address","name":"","type":"address"}],"stateMutability":"view","type":"function"},{"inputs":[],"name":"getContractBalance","outputs":[{"internalType":"uint256","name":"","type":"uint256"}],"stateMutability":"view","type":"function"},{"inputs":[],"name":"getParentOwner","outputs":[{"internalType":"address","name":"","type":"address"}],"stateMutability":"view","type":"function"},{"inputs":[],"name":"nameWrapper","outputs":[{"internalType":"contract INameWrapper","name":"","type":"address"}],"stateMutability":"view","type":"function"},{"inputs":[],"name":"owner","outputs":[{"internalType":"address","name":"","type":"address"}],"stateMutability":"view","type":"function"},{"inputs":[],"name":"parentNode","outputs":[{"internalType":"bytes32","name":"","type":"bytes32"}],"stateMutability":"view","type":"function"},{"inputs":[{"internalType":"string","name":"label","type":"string"}],"name":"register","outputs":[],"stateMutability":"payable","type":"function"},{"inputs":[],"name":"registrationFee","outputs":[{"internalType":"uint256","name":"","type":"uint256"}],"stateMutability":"view","type":"function"},{"inputs":[],"name":"renounceOwnership","outputs":[],"stateMutability":"nonpayable","type":"function"},{"inputs":[],"name":"resolver","outputs":[{"internalType":"address","name":"","type":"address"}],"stateMutability":"view","type":"function"},{"inputs":[{"internalType":"address","name":"_recipient","type":"address"}],"name":"setFeeRecipient","outputs":[],"stateMutability":"nonpayable","type":"function"},{"inputs":[{"internalType":"uint256","name":"_fee","type":"uint256"}],"name":"setRegistrationFee","outputs":[],"stateMutability":"nonpayable","type":"function"},{"inputs":[{"internalType":"address","name":"newOwner","type":"address"}],"name":"transferOwnership","outputs":[],"stateMutability":"nonpayable","type":"function"},{"inputs":[],"name":"withdraw","outputs":[],"stateMutability":"nonpayable","type":"function"}],"evm":{"bytecode":{"linkReferences":{},"object":"60e06040523480156200001157600080fd5b50604051620011133803806200111383398101604081905262000034916200018a565b620000486200004262000119565b6200011d565b600180556001600160a01b0385166200007e5760405162461bcd60e51b8152600401620000759062000211565b60405180910390fd5b6001600160a01b038416620000a75760405162461bcd60e51b81526004016200007590620001e7565b6001600160a01b038116620000d05760405162461bcd60e51b8152600401620000759062000248565b606094851b6001600160601b03199081166080529390941b90921660a05260c052600255600380546001600160a01b0319166001600160a01b039092169190911790556200027f565b3390565b600080546001600160a01b038381166001600160a01b0319831681178455604051919092169283917f8be0079c531659141344cd1fd0a4f28419497f9722a3daafe3b4186f6b6457e09190a35050565b80516001600160a01b03811681146200018557600080fd5b919050565b600080600080600060a08688031215620001a2578081fd5b620001ad866200016d565b9450620001bd602087016200016d565b93506040860151925060608601519150620001db608087016200016d565b90509295509295909350565b60208082526010908201526f24b73b30b634b2103932b9b7b63b32b960811b604082015260600190565b60208082526013908201527f496e76616c6964204e616d655772617070657200000000000000000000000000604082015260600190565b60208082526015908201527f496e76616c69642066656520726563697069656e740000000000000000000000604082015260600190565b60805160601c60a05160601c60c051610e2d620002e660003960008181610454015281816107510152818161084d01526108ec01526000818161027b01526107750152600081816102a701528181610427015281816104dd015261072a0152610e2d6000f3fe6080604052600436106100e85760003560e01c8063779d55481161008a578063e74b981b11610059578063e74b981b14610211578063f2c298be14610231578063f2fde38b14610244578063f3068a0014610264576100e8565b8063779d5548146101b25780638da5cb5b146101c7578063a8e5fbc0146101dc578063c320c727146101f1576100e8565b80633ccfd60b116100c65780633ccfd60b1461015c57806346904840146101735780636f9fb98a14610188578063715018a61461019d576100e8565b806304f3bcec146100ed57806314c44e091461011857806317d778a41461013a575b600080fd5b3480156100f957600080fd5b50610102610279565b60405161010f9190610ae2565b60405180910390f35b34801561012457600080fd5b5061012d61029d565b60405161010f9190610b1b565b34801561014657600080fd5b5061014f6102a3565b60405161010f9190610b10565b34801561016857600080fd5b5061017161034f565b005b34801561017f57600080fd5b506101026103e6565b34801561019457600080fd5b5061012d6103f5565b3480156101a957600080fd5b506101716103f9565b3480156101be57600080fd5b5061010261040d565b3480156101d357600080fd5b506101026104cc565b3480156101e857600080fd5b506101026104db565b3480156101fd57600080fd5b5061017161020c366004610a9d565b6104ff565b34801561021d57600080fd5b5061017161022c3660046109d1565b610547565b61017161023f366004610a30565b6105c0565b34801561025057600080fd5b5061017161025f3660046109d1565b6108b3565b34801561027057600080fd5b5061012d6108ea565b7f000000000000000000000000000000000000000000000000000000000000000081565b60025481565b60007f00000000000000000000000000000000000000000000000000000000000000006001600160a01b031663e985e9c56102dc6104cc565b306040518363ffffffff1660e01b81526004016102fa929190610af6565b60206040518083038186803b15801561031257600080fd5b505afa158015610326573d6000803e3d6000fd5b505050506040513d601f19601f8201168201806040525081019061034a9190610a10565b905090565b61035761090e565b60006103616104cc565b6001600160a01b03164760405161037790610adf565b60006040518083038185875af1925050503d80600081146103b4576040519150601f19603f3d011682016040523d82523d6000602084013e6103b9565b606091505b50509050806103e35760405162461bcd60e51b81526004016103da90610c65565b60405180910390fd5b50565b6003546001600160a01b031681565b4790565b61040161090e565b61040b600061094d565b565b604051637dd5641160e01b81526000906001600160a01b037f00000000000000000000000000000000000000000000000000000000000000001690637dd564119061047c907f000000000000000000000000000000000000000000000000000000000000000090600401610b1b565b60206040518083038186803b15801561049457600080fd5b505afa1580156104a8573d6000803e3d6000fd5b505050506040513d601f19601f8201168201806040525081019061034a91906109f4565b6000546001600160a01b031690565b7f000000000000000000000000000000000000000000000000000000000000000081565b61050761090e565b60028190556040517f8c4d35e54a3f2ef1134138fd8ea3daee6a3c89e10d2665996babdf70261e2c769061053c908390610b1b565b60405180910390a150565b61054f61090e565b6001600160a01b0381166105755760405162461bcd60e51b81526004016103da90610bf6565b600380546001600160a01b0319166001600160a01b0383161790556040517f7a7b5a0a132f9e0581eb8527f66eae9ee89c2a3e79d4ac7e41a1f1f4d48a7fc29061053c908390610ae2565b6105c861099d565b806105e55760405162461bcd60e51b81526004016103da90610c8e565b6002543410156106075760405162461bcd60e51b81526004016103da90610ce0565b6003546002546040516000926001600160a01b0316919061062790610adf565b60006040518083038185875af1925050503d8060008114610664576040519150601f19603f3d011682016040523d82523d6000602084013e610669565b606091505b505090508061068a5760405162461bcd60e51b81526004016103da90610cb3565b60006002543461069a9190610db5565b90508015610720576000336001600160a01b0316826040516106bb90610adf565b60006040518083038185875af1925050503d80600081146106f8576040519150601f19603f3d011682016040523d82523d6000602084013e6106fd565b606091505b505090508061071e5760405162461bcd60e51b81526004016103da90610d0a565b505b6001600160a01b037f0000000000000000000000000000000000000000000000000000000000000000166324c1af447f00000000000000000000000000000000000000000000000000000000000000008686337f00000000000000000000000000000000000000000000000000000000000000006000806107a5426301e13380610d9d565b6040518963ffffffff1660e01b81526004016107c8989796959493929190610b24565b600060405180830381600087803b1580156107e257600080fd5b505af19250505080156107f3575060015b610841573d808015610821576040519150601f19603f3d011682016040523d82523d6000602084013e610826565b606091505b508060405162461bcd60e51b81526004016103da9190610ba3565b336001600160a01b03167f00000000000000000000000000000000000000000000000000000000000000007f38506b5a4c15fa3526645437424431e9107debed02363450779158fa3713be63868660405161089d929190610b87565b60405180910390a350506108af6109c7565b5050565b6108bb61090e565b6001600160a01b0381166108e15760405162461bcd60e51b81526004016103da90610c1f565b6103e38161094d565b7f000000000000000000000000000000000000000000000000000000000000000081565b6109166109cd565b6001600160a01b03166109276104cc565b6001600160a01b03161461040b5760405162461bcd60e51b81526004016103da90610d31565b600080546001600160a01b038381166001600160a01b0319831681178455604051919092169283917f8be0079c531659141344cd1fd0a4f28419497f9722a3daafe3b4186f6b6457e09190a35050565b600260015414156109c05760405162461bcd60e51b81526004016103da90610d66565b6002600155565b60018055565b3390565b6000602082840312156109e2578081fd5b81356109ed81610de2565b9392505050565b600060208284031215610a05578081fd5b81516109ed81610de2565b600060208284031215610a21578081fd5b815180151581146109ed578182fd5b60008060208385031215610a42578081fd5b823567ffffffffffffffff80821115610a59578283fd5b818501915085601f830112610a6c578283fd5b813581811115610a7a578384fd5b866020828501011115610a8b578384fd5b60209290920196919550909350505050565b600060208284031215610aae578081fd5b5035919050565b60008284528282602086013780602084860101526020601f19601f85011685010190509392505050565b90565b6001600160a01b0391909116815260200190565b6001600160a01b0392831681529116602082015260400190565b901515815260200190565b90815260200190565b600089825260e06020830152610b3e60e08301898b610ab5565b6001600160a01b03978816604084015295909616606082015267ffffffffffffffff938416608082015263ffffffff9290921660a083015290911660c090910152949350505050565b600060208252610b9b602083018486610ab5565b949350505050565b6000602080835283518082850152825b81811015610bcf57858101830151858201604001528201610bb3565b81811115610be05783604083870101525b50601f01601f1916929092016040019392505050565b6020808252600f908201526e496e76616c6964206164647265737360881b604082015260600190565b60208082526026908201527f4f776e61626c653a206e6577206f776e657220697320746865207a65726f206160408201526564647265737360d01b606082015260800190565b6020808252600f908201526e15da5d1a191c985dc819985a5b1959608a1b604082015260600190565b6020808252600b908201526a115b5c1d1e481b1858995b60aa1b604082015260600190565b602080825260139082015272119959481d1c985b9cd9995c8819985a5b1959606a1b604082015260600190565b60208082526010908201526f496e73756666696369656e742066656560801b604082015260600190565b6020808252600d908201526c1499599d5b990819985a5b1959609a1b604082015260600190565b6020808252818101527f4f776e61626c653a2063616c6c6572206973206e6f7420746865206f776e6572604082015260600190565b6020808252601f908201527f5265656e7472616e637947756172643a207265656e7472616e742063616c6c00604082015260600190565b60008219821115610db057610db0610dcc565b500190565b600082821015610dc757610dc7610dcc565b500390565b634e487b7160e01b600052601160045260246000fd5b6001600160a01b03811681146103e357600080fdfea2646970667358221220f12e271e37d1664290983134fb7dea0d89f589d16769ff31403909b6c7d6e34064736f6c63430008000033","opcodes":"PUSH1 0xE0 PUSH1 0x40 MSTORE CALLVALUE DUP1 ISZERO PUSH3 0x11 JUMPI PUSH1 0x0 DUP1 REVERT JUMPDEST POP PUSH1 0x40 MLOAD PUSH3 0x1113 CODESIZE SUB DUP1 PUSH3 0x1113 DUP4 CODECOPY DUP2 ADD PUSH1 0x40 DUP2 SWAP1 MSTORE PUSH3 0x34 SWAP2 PUSH3 0x18A JUMP JUMPDEST PUSH3 0x48 PUSH3 0x42 PUSH3 0x119 JUMP JUMPDEST PUSH3 0x11D JUMP JUMPDEST PUSH1 0x1 DUP1 SSTORE PUSH1 0x1 PUSH1 0x1 PUSH1 0xA0 SHL SUB DUP6 AND PUSH3 0x7E JUMPI PUSH1 0x40 MLOAD PUSH3 0x461BCD PUSH1 0xE5 SHL DUP2 MSTORE PUSH1 0x4 ADD PUSH3 0x75 SWAP1 PUSH3 0x211 JUMP JUMPDEST PUSH1 0x40 MLOAD DUP1 SWAP2 SUB SWAP1 REVERT JUMPDEST PUSH1 0x1 PUSH1 0x1 PUSH1 0xA0 SHL SUB DUP5 AND PUSH3 0xA7 JUMPI PUSH1 0x40 MLOAD PUSH3 0x461BCD PUSH1 0xE5 SHL DUP2 MSTORE PUSH1 0x4 ADD PUSH3 0x75 SWAP1 PUSH3 0x1E7 JUMP JUMPDEST PUSH1 0x1 PUSH1 0x1 PUSH1 0xA0 SHL SUB DUP2 AND PUSH3 0xD0 JUMPI PUSH1 0x40 MLOAD PUSH3 0x461BCD PUSH1 0xE5 SHL DUP2 MSTORE PUSH1 0x4 ADD PUSH3 0x75 SWAP1 PUSH3 0x248 JUMP JUMPDEST PUSH1 0x60 SWAP5 DUP6 SHL PUSH1 0x1 PUSH1 0x1 PUSH1 0x60 SHL SUB NOT SWAP1 DUP2 AND PUSH1 0x80 MSTORE SWAP4 SWAP1 SWAP5 SHL SWAP1 SWAP3 AND PUSH1 0xA0 MSTORE PUSH1 0xC0 MSTORE PUSH1 0x2 SSTORE PUSH1 0x3 DUP1 SLOAD PUSH1 0x1 PUSH1 0x1 PUSH1 0xA0 SHL SUB NOT AND PUSH1 0x1 PUSH1 0x1 PUSH1 0xA0 SHL SUB SWAP1 SWAP3 AND SWAP2 SWAP1 SWAP2 OR SWAP1 SSTORE PUSH3 0x27F JUMP JUMPDEST CALLER SWAP1 JUMP JUMPDEST PUSH1 0x0 DUP1 SLOAD PUSH1 0x1 PUSH1 0x1 PUSH1 0xA0 SHL SUB DUP4 DUP2 AND PUSH1 0x1 PUSH1 0x1 PUSH1 0xA0 SHL SUB NOT DUP4 AND DUP2 OR DUP5 SSTORE PUSH1 0x40 MLOAD SWAP2 SWAP1 SWAP3 AND SWAP3 DUP4 SWAP2 PUSH32 0x8BE0079C531659141344CD1FD0A4F28419497F9722A3DAAFE3B4186F6B6457E0 SWAP2 SWAP1 LOG3 POP POP JUMP JUMPDEST DUP1 MLOAD PUSH1 0x1 PUSH1 0x1 PUSH1 0xA0 SHL SUB DUP2 AND DUP2 EQ PUSH3 0x185 JUMPI PUSH1 0x0 DUP1 REVERT JUMPDEST SWAP2 SWAP1 POP JUMP JUMPDEST PUSH1 0x0 DUP1 PUSH1 0x0 DUP1 PUSH1 0x0 PUSH1 0xA0 DUP7 DUP9 SUB SLT ISZERO PUSH3 0x1A2 JUMPI DUP1 DUP2 REVERT JUMPDEST PUSH3 0x1AD DUP7 PUSH3 0x16D JUMP JUMPDEST SWAP5 POP PUSH3 0x1BD PUSH1 0x20 DUP8 ADD PUSH3 0x16D JUMP JUMPDEST SWAP4 POP PUSH1 0x40 DUP7 ADD MLOAD SWAP3 POP PUSH1 0x60 DUP7 ADD MLOAD SWAP2 POP PUSH3 0x1DB PUSH1 0x80 DUP8 ADD PUSH3 0x16D JUMP JUMPDEST SWAP1 POP SWAP3 SWAP6 POP SWAP3 SWAP6 SWAP1 SWAP4 POP JUMP JUMPDEST PUSH1 0x20 DUP1 DUP3 MSTORE PUSH1 0x10 SWAP1 DUP3 ADD MSTORE PUSH16 0x24B73B30B634B2103932B9B7B63B32B9 PUSH1 0x81 SHL PUSH1 0x40 DUP3 ADD MSTORE PUSH1 0x60 ADD SWAP1 JUMP JUMPDEST PUSH1 0x20 DUP1 DUP3 MSTORE PUSH1 0x13 SWAP1 DUP3 ADD MSTORE PUSH32 0x496E76616C6964204E616D655772617070657200000000000000000000000000 PUSH1 0x40 DUP3 ADD MSTORE PUSH1 0x60 ADD SWAP1 JUMP JUMPDEST PUSH1 0x20 DUP1 DUP3 MSTORE PUSH1 0x15 SWAP1 DUP3 ADD MSTORE PUSH32 0x496E76616C69642066656520726563697069656E740000000000000000000000 PUSH1 0x40 DUP3 ADD MSTORE PUSH1 0x60 ADD SWAP1 JUMP JUMPDEST PUSH1 0x80 MLOAD PUSH1 0x60 SHR PUSH1 0xA0 MLOAD PUSH1 0x60 SHR PUSH1 0xC0 MLOAD PUSH2 0xE2D PUSH3 0x2E6 PUSH1 0x0 CODECOPY PUSH1 0x0 DUP2 DUP2 PUSH2 0x454 ADD MSTORE DUP2 DUP2 PUSH2 0x751 ADD MSTORE DUP2 DUP2 PUSH2 0x84D ADD MSTORE PUSH2 0x8EC ADD MSTORE PUSH1 0x0 DUP2 DUP2 PUSH2 0x27B ADD MSTORE PUSH2 0x775 ADD MSTORE PUSH1 0x0 DUP2 DUP2 PUSH2 0x2A7 ADD MSTORE DUP2 DUP2 PUSH2 0x427 ADD MSTORE DUP2 DUP2 PUSH2 0x4DD ADD MSTORE PUSH2 0x72A ADD MSTORE PUSH2 0xE2D PUSH1 0x0 RETURN INVALID PUSH1 0x80 PUSH1 0x40 MSTORE PUSH1 0x4 CALLDATASIZE LT PUSH2 0xE8 JUMPI PUSH1 0x0 CALLDATALOAD PUSH1 0xE0 SHR DUP1 PUSH4 0x779D5548 GT PUSH2 0x8A JUMPI DUP1 PUSH4 0xE74B981B GT PUSH2 0x59 JUMPI DUP1 PUSH4 0xE74B981B EQ PUSH2 0x211 JUMPI DUP1 PUSH4 0xF2C298BE EQ PUSH2 0x231 JUMPI DUP1 PUSH4 0xF2FDE38B EQ PUSH2 0x244 JUMPI DUP1 PUSH4 0xF3068A00 EQ PUSH2 0x264 JUMPI PUSH2 0xE8 JUMP JUMPDEST DUP1 PUSH4 0x779D5548 EQ PUSH2 0x1B2 JUMPI DUP1 PUSH4 0x8DA5CB5B EQ PUSH2 0x1C7 JUMPI DUP1 PUSH4 0xA8E5FBC0 EQ PUSH2 0x1DC JUMPI DUP1 PUSH4 0xC320C727 EQ PUSH2 0x1F1 JUMPI PUSH2 0xE8 JUMP JUMPDEST DUP1 PUSH4 0x3CCFD60B GT PUSH2 0xC6 JUMPI DUP1 PUSH4 0x3CCFD60B EQ PUSH2 0x15C JUMPI DUP1 PUSH4 0x46904840 EQ PUSH2 0x173 JUMPI DUP1 PUSH4 0x6F9FB98A EQ PUSH2 0x188 JUMPI DUP1 PUSH4 0x715018A6 EQ PUSH2 0x19D JUMPI PUSH2 0xE8 JUMP JUMPDEST DUP1 PUSH4 0x4F3BCEC EQ PUSH2 0xED JUMPI DUP1 PUSH4 0x14C44E09 EQ PUSH2 0x118 JUMPI DUP1 PUSH4 0x17D778A4 EQ PUSH2 0x13A JUMPI JUMPDEST PUSH1 0x0 DUP1 REVERT JUMPDEST CALLVALUE DUP1 ISZERO PUSH2 0xF9 JUMPI PUSH1 0x0 DUP1 REVERT JUMPDEST POP PUSH2 0x102 PUSH2 0x279 JUMP JUMPDEST PUSH1 0x40 MLOAD PUSH2 0x10F SWAP2 SWAP1 PUSH2 0xAE2 JUMP JUMPDEST PUSH1 0x40 MLOAD DUP1 SWAP2 SUB SWAP1 RETURN JUMPDEST CALLVALUE DUP1 ISZERO PUSH2 0x124 JUMPI PUSH1 0x0 DUP1 REVERT JUMPDEST POP PUSH2 0x12D PUSH2 0x29D JUMP JUMPDEST PUSH1 0x40 MLOAD PUSH2 0x10F SWAP2 SWAP1 PUSH2 0xB1B JUMP JUMPDEST CALLVALUE DUP1 ISZERO PUSH2 0x146 JUMPI PUSH1 0x0 DUP1 REVERT JUMPDEST POP PUSH2 0x14F PUSH2 0x2A3 JUMP JUMPDEST PUSH1 0x40 MLOAD PUSH2 0x10F SWAP2 SWAP1 PUSH2 0xB10 JUMP JUMPDEST CALLVALUE DUP1 ISZERO PUSH2 0x168 JUMPI PUSH1 0x0 DUP1 REVERT JUMPDEST POP PUSH2 0x171 PUSH2 0x34F JUMP JUMPDEST STOP JUMPDEST CALLVALUE DUP1 ISZERO PUSH2 0x17F JUMPI PUSH1 0x0 DUP1 REVERT JUMPDEST POP PUSH2 0x102 PUSH2 0x3E6 JUMP JUMPDEST CALLVALUE DUP1 ISZERO PUSH2 0x194 JUMPI PUSH1 0x0 DUP1 REVERT JUMPDEST POP PUSH2 0x12D PUSH2 0x3F5 JUMP JUMPDEST CALLVALUE DUP1 ISZERO PUSH2 0x1A9 JUMPI PUSH1 0x0 DUP1 REVERT JUMPDEST POP PUSH2 0x171 PUSH2 0x3F9 JUMP JUMPDEST CALLVALUE DUP1 ISZERO PUSH2 0x1BE JUMPI PUSH1 0x0 DUP1 REVERT JUMPDEST POP PUSH2 0x102 PUSH2 0x40D JUMP JUMPDEST CALLVALUE DUP1 ISZERO PUSH2 0x1D3 JUMPI PUSH1 0x0 DUP1 REVERT JUMPDEST POP PUSH2 0x102 PUSH2 0x4CC JUMP JUMPDEST CALLVALUE DUP1 ISZERO PUSH2 0x1E8 JUMPI PUSH1 0x0 DUP1 REVERT JUMPDEST POP PUSH2 0x102 PUSH2 0x4DB JUMP JUMPDEST CALLVALUE DUP1 ISZERO PUSH2 0x1FD JUMPI PUSH1 0x0 DUP1 REVERT JUMPDEST POP PUSH2 0x171 PUSH2 0x20C CALLDATASIZE PUSH1 0x4 PUSH2 0xA9D JUMP JUMPDEST PUSH2 0x4FF JUMP JUMPDEST CALLVALUE DUP1 ISZERO PUSH2 0x21D JUMPI PUSH1 0x0 DUP1 REVERT JUMPDEST POP PUSH2 0x171 PUSH2 0x22C CALLDATASIZE PUSH1 0x4 PUSH2 0x9D1 JUMP JUMPDEST PUSH2 0x547 JUMP JUMPDEST PUSH2 0x171 PUSH2 0x23F CALLDATASIZE PUSH1 0x4 PUSH2 0xA30 JUMP JUMPDEST PUSH2 0x5C0 JUMP JUMPDEST CALLVALUE DUP1 ISZERO PUSH2 0x250 JUMPI PUSH1 0x0 DUP1 REVERT JUMPDEST POP PUSH2 0x171 PUSH2 0x25F CALLDATASIZE PUSH1 0x4 PUSH2 0x9D1 JUMP JUMPDEST PUSH2 0x8B3 JUMP JUMPDEST CALLVALUE DUP1 ISZERO PUSH2 0x270 JUMPI PUSH1 0x0 DUP1 REVERT JUMPDEST POP PUSH2 0x12D PUSH2 0x8EA JUMP JUMPDEST PUSH32 0x0 DUP2 JUMP JUMPDEST PUSH1 0x2 SLOAD DUP2 JUMP JUMPDEST PUSH1 0x0 PUSH32 0x0 PUSH1 0x1 PUSH1 0x1 PUSH1 0xA0 SHL SUB AND PUSH4 0xE985E9C5 PUSH2 0x2DC PUSH2 0x4CC JUMP JUMPDEST ADDRESS PUSH1 0x40 MLOAD DUP4 PUSH4 0xFFFFFFFF AND PUSH1 0xE0 SHL DUP2 MSTORE PUSH1 0x4 ADD PUSH2 0x2FA SWAP3 SWAP2 SWAP1 PUSH2 0xAF6 JUMP JUMPDEST PUSH1 0x20 PUSH1 0x40 MLOAD DUP1 DUP4 SUB DUP2 DUP7 DUP1 EXTCODESIZE ISZERO DUP1 ISZERO PUSH2 0x312 JUMPI PUSH1 0x0 DUP1 REVERT JUMPDEST POP GAS STATICCALL ISZERO DUP1 ISZERO PUSH2 0x326 JUMPI RETURNDATASIZE PUSH1 0x0 DUP1 RETURNDATACOPY RETURNDATASIZE PUSH1 0x0 REVERT JUMPDEST POP POP POP POP PUSH1 0x40 MLOAD RETURNDATASIZE PUSH1 0x1F NOT PUSH1 0x1F DUP3 ADD AND DUP3 ADD DUP1 PUSH1 0x40 MSTORE POP DUP2 ADD SWAP1 PUSH2 0x34A SWAP2 SWAP1 PUSH2 0xA10 JUMP JUMPDEST SWAP1 POP SWAP1 JUMP JUMPDEST PUSH2 0x357 PUSH2 0x90E JUMP JUMPDEST PUSH1 0x0 PUSH2 0x361 PUSH2 0x4CC JUMP JUMPDEST PUSH1 0x1 PUSH1 0x1 PUSH1 0xA0 SHL SUB AND SELFBALANCE PUSH1 0x40 MLOAD PUSH2 0x377 SWAP1 PUSH2 0xADF JUMP JUMPDEST PUSH1 0x0 PUSH1 0x40 MLOAD DUP1 DUP4 SUB DUP2 DUP6 DUP8 GAS CALL SWAP3 POP POP POP RETURNDATASIZE DUP1 PUSH1 0x0 DUP2 EQ PUSH2 0x3B4 JUMPI PUSH1 0x40 MLOAD SWAP2 POP PUSH1 0x1F NOT PUSH1 0x3F RETURNDATASIZE ADD AND DUP3 ADD PUSH1 0x40 MSTORE RETURNDATASIZE DUP3 MSTORE RETURNDATASIZE PUSH1 0x0 PUSH1 0x20 DUP5 ADD RETURNDATACOPY PUSH2 0x3B9 JUMP JUMPDEST PUSH1 0x60 SWAP2 POP JUMPDEST POP POP SWAP1 POP DUP1 PUSH2 0x3E3 JUMPI PUSH1 0x40 MLOAD PUSH3 0x461BCD PUSH1 0xE5 SHL DUP2 MSTORE PUSH1 0x4 ADD PUSH2 0x3DA SWAP1 PUSH2 0xC65 JUMP JUMPDEST PUSH1 0x40 MLOAD DUP1 SWAP2 SUB SWAP1 REVERT JUMPDEST POP JUMP JUMPDEST PUSH1 0x3 SLOAD PUSH1 0x1 PUSH1 0x1 PUSH1 0xA0 SHL SUB AND DUP2 JUMP JUMPDEST SELFBALANCE SWAP1 JUMP JUMPDEST PUSH2 0x401 PUSH2 0x90E JUMP JUMPDEST PUSH2 0x40B PUSH1 0x0 PUSH2 0x94D JUMP JUMPDEST JUMP JUMPDEST PUSH1 0x40 MLOAD PUSH4 0x7DD56411 PUSH1 0xE0 SHL DUP2 MSTORE PUSH1 0x0 SWAP1 PUSH1 0x1 PUSH1 0x1 PUSH1 0xA0 SHL SUB PUSH32 0x0 AND SWAP1 PUSH4 0x7DD56411 SWAP1 PUSH2 0x47C SWAP1 PUSH32 0x0 SWAP1 PUSH1 0x4 ADD PUSH2 0xB1B JUMP JUMPDEST PUSH1 0x20 PUSH1 0x40 MLOAD DUP1 DUP4 SUB DUP2 DUP7 DUP1 EXTCODESIZE ISZERO DUP1 ISZERO PUSH2 0x494 JUMPI PUSH1 0x0 DUP1 REVERT JUMPDEST POP GAS STATICCALL ISZERO DUP1 ISZERO PUSH2 0x4A8 JUMPI RETURNDATASIZE PUSH1 0x0 DUP1 RETURNDATACOPY RETURNDATASIZE PUSH1 0x0 REVERT JUMPDEST POP POP POP POP PUSH1 0x40 MLOAD RETURNDATASIZE PUSH1 0x1F NOT PUSH1 0x1F DUP3 ADD AND DUP3 ADD DUP1 PUSH1 0x40 MSTORE POP DUP2 ADD SWAP1 PUSH2 0x34A SWAP2 SWAP1 PUSH2 0x9F4 JUMP JUMPDEST PUSH1 0x0 SLOAD PUSH1 0x1 PUSH1 0x1 PUSH1 0xA0 SHL SUB AND SWAP1 JUMP JUMPDEST PUSH32 0x0 DUP2 JUMP JUMPDEST PUSH2 0x507 PUSH2 0x90E JUMP JUMPDEST PUSH1 0x2 DUP2 SWAP1 SSTORE PUSH1 0x40 MLOAD PUSH32 0x8C4D35E54A3F2EF1134138FD8EA3DAEE6A3C89E10D2665996BABDF70261E2C76 SWAP1 PUSH2 0x53C SWAP1 DUP4 SWAP1 PUSH2 0xB1B JUMP JUMPDEST PUSH1 0x40 MLOAD DUP1 SWAP2 SUB SWAP1 LOG1 POP JUMP JUMPDEST PUSH2 0x54F PUSH2 0x90E JUMP JUMPDEST PUSH1 0x1 PUSH1 0x1 PUSH1 0xA0 SHL SUB DUP2 AND PUSH2 0x575 JUMPI PUSH1 0x40 MLOAD PUSH3 0x461BCD PUSH1 0xE5 SHL DUP2 MSTORE PUSH1 0x4 ADD PUSH2 0x3DA SWAP1 PUSH2 0xBF6 JUMP JUMPDEST PUSH1 0x3 DUP1 SLOAD PUSH1 0x1 PUSH1 0x1 PUSH1 0xA0 SHL SUB NOT AND PUSH1 0x1 PUSH1 0x1 PUSH1 0xA0 SHL SUB DUP4 AND OR SWAP1 SSTORE PUSH1 0x40 MLOAD PUSH32 0x7A7B5A0A132F9E0581EB8527F66EAE9EE89C2A3E79D4AC7E41A1F1F4D48A7FC2 SWAP1 PUSH2 0x53C SWAP1 DUP4 SWAP1 PUSH2 0xAE2 JUMP JUMPDEST PUSH2 0x5C8 PUSH2 0x99D JUMP JUMPDEST DUP1 PUSH2 0x5E5 JUMPI PUSH1 0x40 MLOAD PUSH3 0x461BCD PUSH1 0xE5 SHL DUP2 MSTORE PUSH1 0x4 ADD PUSH2 0x3DA SWAP1 PUSH2 0xC8E JUMP JUMPDEST PUSH1 0x2 SLOAD CALLVALUE LT ISZERO PUSH2 0x607 JUMPI PUSH1 0x40 MLOAD PUSH3 0x461BCD PUSH1 0xE5 SHL DUP2 MSTORE PUSH1 0x4 ADD PUSH2 0x3DA SWAP1 PUSH2 0xCE0 JUMP JUMPDEST PUSH1 0x3 SLOAD PUSH1 0x2 SLOAD PUSH1 0x40 MLOAD PUSH1 0x0 SWAP3 PUSH1 0x1 PUSH1 0x1 PUSH1 0xA0 SHL SUB AND SWAP2 SWAP1 PUSH2 0x627 SWAP1 PUSH2 0xADF JUMP JUMPDEST PUSH1 0x0 PUSH1 0x40 MLOAD DUP1 DUP4 SUB DUP2 DUP6 DUP8 GAS CALL SWAP3 POP POP POP RETURNDATASIZE DUP1 PUSH1 0x0 DUP2 EQ PUSH2 0x664 JUMPI PUSH1 0x40 MLOAD SWAP2 POP PUSH1 0x1F NOT PUSH1 0x3F RETURNDATASIZE ADD AND DUP3 ADD PUSH1 0x40 MSTORE RETURNDATASIZE DUP3 MSTORE RETURNDATASIZE PUSH1 0x0 PUSH1 0x20 DUP5 ADD RETURNDATACOPY PUSH2 0x669 JUMP JUMPDEST PUSH1 0x60 SWAP2 POP JUMPDEST POP POP SWAP1 POP DUP1 PUSH2 0x68A JUMPI PUSH1 0x40 MLOAD PUSH3 0x461BCD PUSH1 0xE5 SHL DUP2 MSTORE PUSH1 0x4 ADD PUSH2 0x3DA SWAP1 PUSH2 0xCB3 JUMP JUMPDEST PUSH1 0x0 PUSH1 0x2 SLOAD CALLVALUE PUSH2 0x69A SWAP2 SWAP1 PUSH2 0xDB5 JUMP JUMPDEST SWAP1 POP DUP1 ISZERO PUSH2 0x720 JUMPI PUSH1 0x0 CALLER PUSH1 0x1 PUSH1 0x1 PUSH1 0xA0 SHL SUB AND DUP3 PUSH1 0x40 MLOAD PUSH2 0x6BB SWAP1 PUSH2 0xADF JUMP JUMPDEST PUSH1 0x0 PUSH1 0x40 MLOAD DUP1 DUP4 SUB DUP2 DUP6 DUP8 GAS CALL SWAP3 POP POP POP RETURNDATASIZE DUP1 PUSH1 0x0 DUP2 EQ PUSH2 0x6F8 JUMPI PUSH1 0x40 MLOAD SWAP2 POP PUSH1 0x1F NOT PUSH1 0x3F RETURNDATASIZE ADD AND DUP3 ADD PUSH1 0x40 MSTORE RETURNDATASIZE DUP3 MSTORE RETURNDATASIZE PUSH1 0x0 PUSH1 0x20 DUP5 ADD RETURNDATACOPY PUSH2 0x6FD JUMP JUMPDEST PUSH1 0x60 SWAP2 POP JUMPDEST POP POP SWAP1 POP DUP1 PUSH2 0x71E JUMPI PUSH1 0x40 MLOAD PUSH3 0x461BCD PUSH1 0xE5 SHL DUP2 MSTORE PUSH1 0x4 ADD PUSH2 0x3DA SWAP1 PUSH2 0xD0A JUMP JUMPDEST POP JUMPDEST PUSH1 0x1 PUSH1 0x1 PUSH1 0xA0 SHL SUB PUSH32 0x0 AND PUSH4 0x24C1AF44 PUSH32 0x0 DUP7 DUP7 CALLER PUSH32 0x0 PUSH1 0x0 DUP1 PUSH2 0x7A5 TIMESTAMP PUSH4 0x1E13380 PUSH2 0xD9D JUMP JUMPDEST PUSH1 0x40 MLOAD DUP10 PUSH4 0xFFFFFFFF AND PUSH1 0xE0 SHL DUP2 MSTORE PUSH1 0x4 ADD PUSH2 0x7C8 SWAP9 SWAP8 SWAP7 SWAP6 SWAP5 SWAP4 SWAP3 SWAP2 SWAP1 PUSH2 0xB24 JUMP JUMPDEST PUSH1 0x0 PUSH1 0x40 MLOAD DUP1 DUP4 SUB DUP2 PUSH1 0x0 DUP8 DUP1 EXTCODESIZE ISZERO DUP1 ISZERO PUSH2 0x7E2 JUMPI PUSH1 0x0 DUP1 REVERT JUMPDEST POP GAS CALL SWAP3 POP POP POP DUP1 ISZERO PUSH2 0x7F3 JUMPI POP PUSH1 0x1 JUMPDEST PUSH2 0x841 JUMPI RETURNDATASIZE DUP1 DUP1 ISZERO PUSH2 0x821 JUMPI PUSH1 0x40 MLOAD SWAP2 POP PUSH1 0x1F NOT PUSH1 0x3F RETURNDATASIZE ADD AND DUP3 ADD PUSH1 0x40 MSTORE RETURNDATASIZE DUP3 MSTORE RETURNDATASIZE PUSH1 0x0 PUSH1 0x20 DUP5 ADD RETURNDATACOPY PUSH2 0x826 JUMP JUMPDEST PUSH1 0x60 SWAP2 POP JUMPDEST POP DUP1 PUSH1 0x40 MLOAD PUSH3 0x461BCD PUSH1 0xE5 SHL DUP2 MSTORE PUSH1 0x4 ADD PUSH2 0x3DA SWAP2 SWAP1 PUSH2 0xBA3 JUMP JUMPDEST CALLER PUSH1 0x1 PUSH1 0x1 PUSH1 0xA0 SHL SUB AND PUSH32 0x0 PUSH32 0x38506B5A4C15FA3526645437424431E9107DEBED02363450779158FA3713BE63 DUP7 DUP7 PUSH1 0x40 MLOAD PUSH2 0x89D SWAP3 SWAP2 SWAP1 PUSH2 0xB87 JUMP JUMPDEST PUSH1 0x40 MLOAD DUP1 SWAP2 SUB SWAP1 LOG3 POP POP PUSH2 0x8AF PUSH2 0x9C7 JUMP JUMPDEST POP POP JUMP JUMPDEST PUSH2 0x8BB PUSH2 0x90E JUMP JUMPDEST PUSH1 0x1 PUSH1 0x1 PUSH1 0xA0 SHL SUB DUP2 AND PUSH2 0x8E1 JUMPI PUSH1 0x40 MLOAD PUSH3 0x461BCD PUSH1 0xE5 SHL DUP2 MSTORE PUSH1 0x4 ADD PUSH2 0x3DA SWAP1 PUSH2 0xC1F JUMP JUMPDEST PUSH2 0x3E3 DUP2 PUSH2 0x94D JUMP JUMPDEST PUSH32 0x0 DUP2 JUMP JUMPDEST PUSH2 0x916 PUSH2 0x9CD JUMP JUMPDEST PUSH1 0x1 PUSH1 0x1 PUSH1 0xA0 SHL SUB AND PUSH2 0x927 PUSH2 0x4CC JUMP JUMPDEST PUSH1 0x1 PUSH1 0x1 PUSH1 0xA0 SHL SUB AND EQ PUSH2 0x40B JUMPI PUSH1 0x40 MLOAD PUSH3 0x461BCD PUSH1 0xE5 SHL DUP2 MSTORE PUSH1 0x4 ADD PUSH2 0x3DA SWAP1 PUSH2 0xD31 JUMP JUMPDEST PUSH1 0x0 DUP1 SLOAD PUSH1 0x1 PUSH1 0x1 PUSH1 0xA0 SHL SUB DUP4 DUP2 AND PUSH1 0x1 PUSH1 0x1 PUSH1 0xA0 SHL SUB NOT DUP4 AND DUP2 OR DUP5 SSTORE PUSH1 0x40 MLOAD SWAP2 SWAP1 SWAP3 AND SWAP3 DUP4 SWAP2 PUSH32 0x8BE0079C531659141344CD1FD0A4F28419497F9722A3DAAFE3B4186F6B6457E0 SWAP2 SWAP1 LOG3 POP POP JUMP JUMPDEST PUSH1 0x2 PUSH1 0x1 SLOAD EQ ISZERO PUSH2 0x9C0 JUMPI PUSH1 0x40 MLOAD PUSH3 0x461BCD PUSH1 0xE5 SHL DUP2 MSTORE PUSH1 0x4 ADD PUSH2 0x3DA SWAP1 PUSH2 0xD66 JUMP JUMPDEST PUSH1 0x2 PUSH1 0x1 SSTORE JUMP JUMPDEST PUSH1 0x1 DUP1 SSTORE JUMP JUMPDEST CALLER SWAP1 JUMP JUMPDEST PUSH1 0x0 PUSH1 0x20 DUP3 DUP5 SUB SLT ISZERO PUSH2 0x9E2 JUMPI DUP1 DUP2 REVERT JUMPDEST DUP2 CALLDATALOAD PUSH2 0x9ED DUP2 PUSH2 0xDE2 JUMP JUMPDEST SWAP4 SWAP3 POP POP POP JUMP JUMPDEST PUSH1 0x0 PUSH1 0x20 DUP3 DUP5 SUB SLT ISZERO PUSH2 0xA05 JUMPI DUP1 DUP2 REVERT JUMPDEST DUP2 MLOAD PUSH2 0x9ED DUP2 PUSH2 0xDE2 JUMP JUMPDEST PUSH1 0x0 PUSH1 0x20 DUP3 DUP5 SUB SLT ISZERO PUSH2 0xA21 JUMPI DUP1 DUP2 REVERT JUMPDEST DUP2 MLOAD DUP1 ISZERO ISZERO DUP2 EQ PUSH2 0x9ED JUMPI DUP2 DUP3 REVERT JUMPDEST PUSH1 0x0 DUP1 PUSH1 0x20 DUP4 DUP6 SUB SLT ISZERO PUSH2 0xA42 JUMPI DUP1 DUP2 REVERT JUMPDEST DUP3 CALLDATALOAD PUSH8 0xFFFFFFFFFFFFFFFF DUP1 DUP3 GT ISZERO PUSH2 0xA59 JUMPI DUP3 DUP4 REVERT JUMPDEST DUP2 DUP6 ADD SWAP2 POP DUP6 PUSH1 0x1F DUP4 ADD SLT PUSH2 0xA6C JUMPI DUP3 DUP4 REVERT JUMPDEST DUP2 CALLDATALOAD DUP2 DUP2 GT ISZERO PUSH2 0xA7A JUMPI DUP4 DUP5 REVERT JUMPDEST DUP7 PUSH1 0x20 DUP3 DUP6 ADD ADD GT ISZERO PUSH2 0xA8B JUMPI DUP4 DUP5 REVERT JUMPDEST PUSH1 0x20 SWAP3 SWAP1 SWAP3 ADD SWAP7 SWAP2 SWAP6 POP SWAP1 SWAP4 POP POP POP POP JUMP JUMPDEST PUSH1 0x0 PUSH1 0x20 DUP3 DUP5 SUB SLT ISZERO PUSH2 0xAAE JUMPI DUP1 DUP2 REVERT JUMPDEST POP CALLDATALOAD SWAP2 SWAP1 POP JUMP JUMPDEST PUSH1 0x0 DUP3 DUP5 MSTORE DUP3 DUP3 PUSH1 0x20 DUP7 ADD CALLDATACOPY DUP1 PUSH1 0x20 DUP5 DUP7 ADD ADD MSTORE PUSH1 0x20 PUSH1 0x1F NOT PUSH1 0x1F DUP6 ADD AND DUP6 ADD ADD SWAP1 POP SWAP4 SWAP3 POP POP POP JUMP JUMPDEST SWAP1 JUMP JUMPDEST PUSH1 0x1 PUSH1 0x1 PUSH1 0xA0 SHL SUB SWAP2 SWAP1 SWAP2 AND DUP2 MSTORE PUSH1 0x20 ADD SWAP1 JUMP JUMPDEST PUSH1 0x1 PUSH1 0x1 PUSH1 0xA0 SHL SUB SWAP3 DUP4 AND DUP2 MSTORE SWAP2 AND PUSH1 0x20 DUP3 ADD MSTORE PUSH1 0x40 ADD SWAP1 JUMP JUMPDEST SWAP1 ISZERO ISZERO DUP2 MSTORE PUSH1 0x20 ADD SWAP1 JUMP JUMPDEST SWAP1 DUP2 MSTORE PUSH1 0x20 ADD SWAP1 JUMP JUMPDEST PUSH1 0x0 DUP10 DUP3 MSTORE PUSH1 0xE0 PUSH1 0x20 DUP4 ADD MSTORE PUSH2 0xB3E PUSH1 0xE0 DUP4 ADD DUP10 DUP12 PUSH2 0xAB5 JUMP JUMPDEST PUSH1 0x1 PUSH1 0x1 PUSH1 0xA0 SHL SUB SWAP8 DUP9 AND PUSH1 0x40 DUP5 ADD MSTORE SWAP6 SWAP1 SWAP7 AND PUSH1 0x60 DUP3 ADD MSTORE PUSH8 0xFFFFFFFFFFFFFFFF SWAP4 DUP5 AND PUSH1 0x80 DUP3 ADD MSTORE PUSH4 0xFFFFFFFF SWAP3 SWAP1 SWAP3 AND PUSH1 0xA0 DUP4 ADD MSTORE SWAP1 SWAP2 AND PUSH1 0xC0 SWAP1 SWAP2 ADD MSTORE SWAP5 SWAP4 POP POP POP POP JUMP JUMPDEST PUSH1 0x0 PUSH1 0x20 DUP3 MSTORE PUSH2 0xB9B PUSH1 0x20 DUP4 ADD DUP5 DUP7 PUSH2 0xAB5 JUMP JUMPDEST SWAP5 SWAP4 POP POP POP POP JUMP JUMPDEST PUSH1 0x0 PUSH1 0x20 DUP1 DUP4 MSTORE DUP4 MLOAD DUP1 DUP3 DUP6 ADD MSTORE DUP3 JUMPDEST DUP2 DUP2 LT ISZERO PUSH2 0xBCF JUMPI DUP6 DUP2 ADD DUP4 ADD MLOAD DUP6 DUP3 ADD PUSH1 0x40 ADD MSTORE DUP3 ADD PUSH2 0xBB3 JUMP JUMPDEST DUP2 DUP2 GT ISZERO PUSH2 0xBE0 JUMPI DUP4 PUSH1 0x40 DUP4 DUP8 ADD ADD MSTORE JUMPDEST POP PUSH1 0x1F ADD PUSH1 0x1F NOT AND SWAP3 SWAP1 SWAP3 ADD PUSH1 0x40 ADD SWAP4 SWAP3 POP POP POP JUMP JUMPDEST PUSH1 0x20 DUP1 DUP3 MSTORE PUSH1 0xF SWAP1 DUP3 ADD MSTORE PUSH15 0x496E76616C69642061646472657373 PUSH1 0x88 SHL PUSH1 0x40 DUP3 ADD MSTORE PUSH1 0x60 ADD SWAP1 JUMP JUMPDEST PUSH1 0x20 DUP1 DUP3 MSTORE PUSH1 0x26 SWAP1 DUP3 ADD MSTORE PUSH32 0x4F776E61626C653A206E6577206F776E657220697320746865207A65726F2061 PUSH1 0x40 DUP3 ADD MSTORE PUSH6 0x646472657373 PUSH1 0xD0 SHL PUSH1 0x60 DUP3 ADD MSTORE PUSH1 0x80 ADD SWAP1 JUMP JUMPDEST PUSH1 0x20 DUP1 DUP3 MSTORE PUSH1 0xF SWAP1 DUP3 ADD MSTORE PUSH15 0x15DA5D1A191C985DC819985A5B1959 PUSH1 0x8A SHL PUSH1 0x40 DUP3 ADD MSTORE PUSH1 0x60 ADD SWAP1 JUMP JUMPDEST PUSH1 0x20 DUP1 DUP3 MSTORE PUSH1 0xB SWAP1 DUP3 ADD MSTORE PUSH11 0x115B5C1D1E481B1858995B PUSH1 0xAA SHL PUSH1 0x40 DUP3 ADD MSTORE PUSH1 0x60 ADD SWAP1 JUMP JUMPDEST PUSH1 0x20 DUP1 DUP3 MSTORE PUSH1 0x13 SWAP1 DUP3 ADD MSTORE PUSH19 0x119959481D1C985B9CD9995C8819985A5B1959 PUSH1 0x6A SHL PUSH1 0x40 DUP3 ADD MSTORE PUSH1 0x60 ADD SWAP1 JUMP JUMPDEST PUSH1 0x20 DUP1 DUP3 MSTORE PUSH1 0x10 SWAP1 DUP3 ADD MSTORE PUSH16 0x496E73756666696369656E7420666565 PUSH1 0x80 SHL PUSH1 0x40 DUP3 ADD MSTORE PUSH1 0x60 ADD SWAP1 JUMP JUMPDEST PUSH1 0x20 DUP1 DUP3 MSTORE PUSH1 0xD SWAP1 DUP3 ADD MSTORE PUSH13 0x1499599D5B990819985A5B1959 PUSH1 0x9A SHL PUSH1 0x40 DUP3 ADD MSTORE PUSH1 0x60 ADD SWAP1 JUMP JUMPDEST PUSH1 0x20 DUP1 DUP3 MSTORE DUP2 DUP2 ADD MSTORE PUSH32 0x4F776E61626C653A2063616C6C6572206973206E6F7420746865206F776E6572 PUSH1 0x40 DUP3 ADD MSTORE PUSH1 0x60 ADD SWAP1 JUMP JUMPDEST PUSH1 0x20 DUP1 DUP3 MSTORE PUSH1 0x1F SWAP1 DUP3 ADD MSTORE PUSH32 0x5265656E7472616E637947756172643A207265656E7472616E742063616C6C00 PUSH1 0x40 DUP3 ADD MSTORE PUSH1 0x60 ADD SWAP1 JUMP JUMPDEST PUSH1 0x0 DUP3 NOT DUP3 GT ISZERO PUSH2 0xDB0 JUMPI PUSH2 0xDB0 PUSH2 0xDCC JUMP JUMPDEST POP ADD SWAP1 JUMP JUMPDEST PUSH1 0x0 DUP3 DUP3 LT ISZERO PUSH2 0xDC7 JUMPI PUSH2 0xDC7 PUSH2 0xDCC JUMP JUMPDEST POP SUB SWAP1 JUMP JUMPDEST PUSH4 0x4E487B71 PUSH1 0xE0 SHL PUSH1 0x0 MSTORE PUSH1 0x11 PUSH1 0x4 MSTORE PUSH1 0x24 PUSH1 0x0 REVERT JUMPDEST PUSH1 0x1 PUSH1 0x1 PUSH1 0xA0 SHL SUB DUP2 AND DUP2 EQ PUSH2 0x3E3 JUMPI PUSH1 0x0 DUP1 REVERT INVALID LOG2 PUSH5 0x6970667358 0x22 SLT KECCAK256 CALL 0x2E 0x27 0x1E CALLDATACOPY 0xD1 PUSH7 0x4290983134FB7D 0xEA 0xD DUP10 CREATE2 DUP10 0xD1 PUSH8 0x69FF31403909B6C7 0xD6 0xE3 BLOCKHASH PUSH5 0x736F6C6343 STOP ADDMOD STOP STOP CALLER "},"methodIdentifiers":{"checkApproval()":"17d778a4","feeRecipient()":"46904840","getContractBalance()":"6f9fb98a","getParentOwner()":"779d5548","nameWrapper()":"a8e5fbc0","owner()":"8da5cb5b","parentNode()":"f3068a00","register(string)":"f2c298be","registrationFee()":"14c44e09","renounceOwnership()":"715018a6","resolver()":"04f3bcec","setFeeRecipient(address)":"e74b981b","setRegistrationFee(uint256)":"c320c727","transferOwnership(address)":"f2fde38b","withdraw()":"3ccfd60b"}}}}}