{
  "contractName": "SubdomainRegister8",
  "abi": [
    {
      "inputs": [
        {
          "internalType": "address",
          "name": "_nameWrapper",
          "type": "address"
        },
        {
          "internalType": "address",
          "name": "_resolver",
          "type": "address"
        },
        {
          "internalType": "bytes32",
          "name": "_parentNode",
          "type": "bytes32"
        },
        {
          "internalType": "uint256",
          "name": "_registrationFee",
          "type": "uint256"
        },
        {
          "internalType": "address",
          "name": "_feeRecipient",
          "type": "address"
        }
      ],
      "stateMutability": "nonpayable",
      "type": "constructor"
    },
    {
      "anonymous": false,
      "inputs": [
        {
          "indexed": false,
          "internalType": "address",
          "name": "operator",
          "type": "address"
        }
      ],
      "name": "ApprovalGranted",
      "type": "event"
    },
    {
      "anonymous": false,
      "inputs": [
        {
          "indexed": false,
          "internalType": "address",
          "name": "newRecipient",
          "type": "address"
        }
      ],
      "name": "FeeRecipientUpdated",
      "type": "event"
    },
    {
      "anonymous": false,
      "inputs": [
        {
          "indexed": false,
          "internalType": "uint256",
          "name": "newFee",
          "type": "uint256"
        }
      ],
      "name": "FeeUpdated",
      "type": "event"
    },
    {
      "anonymous": false,
      "inputs": [
        {
          "indexed": true,
          "internalType": "address",
          "name": "previousOwner",
          "type": "address"
        },
        {
          "indexed": true,
          "internalType": "address",
          "name": "newOwner",
          "type": "address"
        }
      ],
      "name": "OwnershipTransferred",
      "type": "event"
    },
    {
      "anonymous": false,
      "inputs": [
        {
          "indexed": true,
          "internalType": "bytes32",
          "name": "parentNode",
          "type": "bytes32"
        },
        {
          "indexed": false,
          "internalType": "string",
          "name": "label",
          "type": "string"
        },
        {
          "indexed": true,
          "internalType": "address",
          "name": "owner",
          "type": "address"
        }
      ],
      "name": "SubdomainRegistered",
      "type": "event"
    },
    {
      "inputs": [],
      "name": "feeRecipient",
      "outputs": [
        {
          "internalType": "address",
          "name": "",
          "type": "address"
        }
      ],
      "stateMutability": "view",
      "type": "function"
    },
    {
      "inputs": [],
      "name": "nameWrapper",
      "outputs": [
        {
          "internalType": "contract INameWrapper",
          "name": "",
          "type": "address"
        }
      ],
      "stateMutability": "view",
      "type": "function"
    },
    {
      "inputs": [],
      "name": "owner",
      "outputs": [
        {
          "internalType": "address",
          "name": "",
          "type": "address"
        }
      ],
      "stateMutability": "view",
      "type": "function"
    },
    {
      "inputs": [],
      "name": "parentNode",
      "outputs": [
        {
          "internalType": "bytes32",
          "name": "",
          "type": "bytes32"
        }
      ],
      "stateMutability": "view",
      "type": "function"
    },
    {
      "inputs": [],
      "name": "registrationFee",
      "outputs": [
        {
          "internalType": "uint256",
          "name": "",
          "type": "uint256"
        }
      ],
      "stateMutability": "view",
      "type": "function"
    },
    {
      "inputs": [],
      "name": "renounceOwnership",
      "outputs": [],
      "stateMutability": "nonpayable",
      "type": "function"
    },
    {
      "inputs": [],
      "name": "resolver",
      "outputs": [
        {
          "internalType": "address",
          "name": "",
          "type": "address"
        }
      ],
      "stateMutability": "view",
      "type": "function"
    },
    {
      "inputs": [
        {
          "internalType": "address",
          "name": "newOwner",
          "type": "address"
        }
      ],
      "name": "transferOwnership",
      "outputs": [],
      "stateMutability": "nonpayable",
      "type": "function"
    },
    {
      "inputs": [],
      "name": "grantApproval",
      "outputs": [],
      "stateMutability": "nonpayable",
      "type": "function"
    },
    {
      "inputs": [
        {
          "internalType": "string",
          "name": "label",
          "type": "string"
        }
      ],
      "name": "register",
      "outputs": [],
      "stateMutability": "payable",
      "type": "function"
    },
    {
      "inputs": [
        {
          "internalType": "uint256",
          "name": "_fee",
          "type": "uint256"
        }
      ],
      "name": "setRegistrationFee",
      "outputs": [],
      "stateMutability": "nonpayable",
      "type": "function"
    },
    {
      "inputs": [
        {
          "internalType": "address",
          "name": "_recipient",
          "type": "address"
        }
      ],
      "name": "setFeeRecipient",
      "outputs": [],
      "stateMutability": "nonpayable",
      "type": "function"
    },
    {
      "inputs": [],
      "name": "withdraw",
      "outputs": [],
      "stateMutability": "nonpayable",
      "type": "function"
    },
    {
      "inputs": [],
      "name": "getParentOwner",
      "outputs": [
        {
          "internalType": "address",
          "name": "",
          "type": "address"
        }
      ],
      "stateMutability": "view",
      "type": "function"
    },
    {
      "inputs": [],
      "name": "getContractBalance",
      "outputs": [
        {
          "internalType": "uint256",
          "name": "",
          "type": "uint256"
        }
      ],
      "stateMutability": "view",
      "type": "function"
    },
    {
      "inputs": [],
      "name": "checkApproval",
      "outputs": [
        {
          "internalType": "bool",
          "name": "",
          "type": "bool"
        }
      ],
      "stateMutability": "view",
      "type": "function"
    }
  ],
  "bytecode": "0x60e06040523480156200001157600080fd5b506040516200117d3803806200117d83398101604081905262000034916200018a565b620000486200004262000119565b6200011d565b600180556001600160a01b0385166200007e5760405162461bcd60e51b8152600401620000759062000211565b60405180910390fd5b6001600160a01b038416620000a75760405162461bcd60e51b81526004016200007590620001e7565b6001600160a01b038116620000d05760405162461bcd60e51b8152600401620000759062000248565b606094851b6001600160601b03199081166080529390941b90921660a05260c052600255600380546001600160a01b0319166001600160a01b039092169190911790556200027f565b3390565b600080546001600160a01b038381166001600160a01b0319831681178455604051919092169283917f8be0079c531659141344cd1fd0a4f28419497f9722a3daafe3b4186f6b6457e09190a35050565b80516001600160a01b03811681146200018557600080fd5b919050565b600080600080600060a08688031215620001a2578081fd5b620001ad866200016d565b9450620001bd602087016200016d565b93506040860151925060608601519150620001db608087016200016d565b90509295509295909350565b60208082526010908201526f24b73b30b634b2103932b9b7b63b32b960811b604082015260600190565b60208082526013908201527f496e76616c6964204e616d655772617070657200000000000000000000000000604082015260600190565b60208082526015908201527f496e76616c69642066656520726563697069656e740000000000000000000000604082015260600190565b60805160601c60a05160601c60c051610e90620002ed6000396000818161047401528181610833015281816108e8015261098701526000818161029b01526108570152600081816102c7015281816104470152818161051a015281816105bf015261080c0152610e906000f3fe6080604052600436106100f35760003560e01c80638da5cb5b1161008a578063e74b981b11610059578063e74b981b14610231578063f2c298be14610251578063f2fde38b14610264578063f3068a0014610284576100f3565b80638da5cb5b146101d2578063a8034df1146101e7578063a8e5fbc0146101fc578063c320c72714610211576100f3565b806346904840116100c6578063469048401461017e5780636f9fb98a14610193578063715018a6146101a8578063779d5548146101bd576100f3565b806304f3bcec146100f857806314c44e091461012357806317d778a4146101455780633ccfd60b14610167575b600080fd5b34801561010457600080fd5b5061010d610299565b60405161011a9190610b7d565b60405180910390f35b34801561012f57600080fd5b506101386102bd565b60405161011a9190610bd1565b34801561015157600080fd5b5061015a6102c3565b60405161011a9190610bc6565b34801561017357600080fd5b5061017c61036f565b005b34801561018a57600080fd5b5061010d610406565b34801561019f57600080fd5b50610138610415565b3480156101b457600080fd5b5061017c610419565b3480156101c957600080fd5b5061010d61042d565b3480156101de57600080fd5b5061010d6104ec565b3480156101f357600080fd5b5061017c6104fb565b34801561020857600080fd5b5061010d6105bd565b34801561021d57600080fd5b5061017c61022c366004610b38565b6105e1565b34801561023d57600080fd5b5061017c61024c366004610a6c565b610629565b61017c61025f366004610acb565b6106a2565b34801561027057600080fd5b5061017c61027f366004610a6c565b61094e565b34801561029057600080fd5b50610138610985565b7f000000000000000000000000000000000000000000000000000000000000000081565b60025481565b60007f00000000000000000000000000000000000000000000000000000000000000006001600160a01b031663e985e9c56102fc6104ec565b306040518363ffffffff1660e01b815260040161031a929190610b91565b60206040518083038186803b15801561033257600080fd5b505afa158015610346573d6000803e3d6000fd5b505050506040513d601f19601f8201168201806040525081019061036a9190610aab565b905090565b6103776109a9565b60006103816104ec565b6001600160a01b03164760405161039790610b7a565b60006040518083038185875af1925050503d80600081146103d4576040519150601f19603f3d011682016040523d82523d6000602084013e6103d9565b606091505b50509050806104035760405162461bcd60e51b81526004016103fa90610cc8565b60405180910390fd5b50565b6003546001600160a01b031681565b4790565b6104216109a9565b61042b60006109e8565b565b604051637dd5641160e01b81526000906001600160a01b037f00000000000000000000000000000000000000000000000000000000000000001690637dd564119061049c907f000000000000000000000000000000000000000000000000000000000000000090600401610bd1565b60206040518083038186803b1580156104b457600080fd5b505afa1580156104c8573d6000803e3d6000fd5b505050506040513d601f19601f8201168201806040525081019061036a9190610a8f565b6000546001600160a01b031690565b6105036109a9565b60405163a22cb46560e01b81526001600160a01b037f0000000000000000000000000000000000000000000000000000000000000000169063a22cb46590610552903090600190600401610bab565b600060405180830381600087803b15801561056c57600080fd5b505af1158015610580573d6000803e3d6000fd5b505050507f53ae258b2d6c1fdf56bc4dbdd5c07df4d7c07a3595b3ce653d7418f7c651c03c306040516105b39190610b7d565b60405180910390a1565b7f000000000000000000000000000000000000000000000000000000000000000081565b6105e96109a9565b60028190556040517f8c4d35e54a3f2ef1134138fd8ea3daee6a3c89e10d2665996babdf70261e2c769061061e908390610bd1565b60405180910390a150565b6106316109a9565b6001600160a01b0381166106575760405162461bcd60e51b81526004016103fa90610c59565b600380546001600160a01b0319166001600160a01b0383161790556040517f7a7b5a0a132f9e0581eb8527f66eae9ee89c2a3e79d4ac7e41a1f1f4d48a7fc29061061e908390610b7d565b6106aa610a38565b806106c75760405162461bcd60e51b81526004016103fa90610cf1565b6002543410156106e95760405162461bcd60e51b81526004016103fa90610d43565b6003546002546040516000926001600160a01b0316919061070990610b7a565b60006040518083038185875af1925050503d8060008114610746576040519150601f19603f3d011682016040523d82523d6000602084013e61074b565b606091505b505090508061076c5760405162461bcd60e51b81526004016103fa90610d16565b60006002543461077c9190610e18565b90508015610802576000336001600160a01b03168260405161079d90610b7a565b60006040518083038185875af1925050503d80600081146107da576040519150601f19603f3d011682016040523d82523d6000602084013e6107df565b606091505b50509050806108005760405162461bcd60e51b81526004016103fa90610d6d565b505b6001600160a01b037f0000000000000000000000000000000000000000000000000000000000000000166324c1af447f00000000000000000000000000000000000000000000000000000000000000008686337f0000000000000000000000000000000000000000000000000000000000000000600080610887426301e13380610e00565b6040518963ffffffff1660e01b81526004016108aa989796959493929190610bda565b600060405180830381600087803b1580156108c457600080fd5b505af11580156108d8573d6000803e3d6000fd5b50505050336001600160a01b03167f00000000000000000000000000000000000000000000000000000000000000007f38506b5a4c15fa3526645437424431e9107debed02363450779158fa3713be638686604051610938929190610c3d565b60405180910390a3505061094a610a62565b5050565b6109566109a9565b6001600160a01b03811661097c5760405162461bcd60e51b81526004016103fa90610c82565b610403816109e8565b7f000000000000000000000000000000000000000000000000000000000000000081565b6109b1610a68565b6001600160a01b03166109c26104ec565b6001600160a01b03161461042b5760405162461bcd60e51b81526004016103fa90610d94565b600080546001600160a01b038381166001600160a01b0319831681178455604051919092169283917f8be0079c531659141344cd1fd0a4f28419497f9722a3daafe3b4186f6b6457e09190a35050565b60026001541415610a5b5760405162461bcd60e51b81526004016103fa90610dc9565b6002600155565b60018055565b3390565b600060208284031215610a7d578081fd5b8135610a8881610e45565b9392505050565b600060208284031215610aa0578081fd5b8151610a8881610e45565b600060208284031215610abc578081fd5b81518015158114610a88578182fd5b60008060208385031215610add578081fd5b823567ffffffffffffffff80821115610af4578283fd5b818501915085601f830112610b07578283fd5b813581811115610b15578384fd5b866020828501011115610b26578384fd5b60209290920196919550909350505050565b600060208284031215610b49578081fd5b5035919050565b60008284528282602086013780602084860101526020601f19601f85011685010190509392505050565b90565b6001600160a01b0391909116815260200190565b6001600160a01b0392831681529116602082015260400190565b6001600160a01b039290921682521515602082015260400190565b901515815260200190565b90815260200190565b600089825260e06020830152610bf460e08301898b610b50565b6001600160a01b03978816604084015295909616606082015267ffffffffffffffff938416608082015263ffffffff9290921660a083015290911660c090910152949350505050565b600060208252610c51602083018486610b50565b949350505050565b6020808252600f908201526e496e76616c6964206164647265737360881b604082015260600190565b60208082526026908201527f4f776e61626c653a206e6577206f776e657220697320746865207a65726f206160408201526564647265737360d01b606082015260800190565b6020808252600f908201526e15da5d1a191c985dc819985a5b1959608a1b604082015260600190565b6020808252600b908201526a115b5c1d1e481b1858995b60aa1b604082015260600190565b602080825260139082015272119959481d1c985b9cd9995c8819985a5b1959606a1b604082015260600190565b60208082526010908201526f496e73756666696369656e742066656560801b604082015260600190565b6020808252600d908201526c1499599d5b990819985a5b1959609a1b604082015260600190565b6020808252818101527f4f776e61626c653a2063616c6c6572206973206e6f7420746865206f776e6572604082015260600190565b6020808252601f908201527f5265656e7472616e637947756172643a207265656e7472616e742063616c6c00604082015260600190565b60008219821115610e1357610e13610e2f565b500190565b600082821015610e2a57610e2a610e2f565b500390565b634e487b7160e01b600052601160045260246000fd5b6001600160a01b038116811461040357600080fdfea264697066735822122063b09839fa78b527343294901e36f4a21a905afae29d61a8d703e2b3f41a372364736f6c63430008000033",
  "immutableReferences": {
    "259": [
      {
        "length": 32,
        "start": 711
      },
      {
        "length": 32,
        "start": 1095
      },
      {
        "length": 32,
        "start": 1306
      },
      {
        "length": 32,
        "start": 1471
      },
      {
        "length": 32,
        "start": 2060
      }
    ],
    "261": [
      {
        "length": 32,
        "start": 667
      },
      {
        "length": 32,
        "start": 2135
      }
    ],
    "263": [
      {
        "length": 32,
        "start": 1140
      },
      {
        "length": 32,
        "start": 2099
      },
      {
        "length": 32,
        "start": 2280
      },
      {
        "length": 32,
        "start": 2439
      }
    ]
  },
  "source": "// SPDX-License-Identifier: MIT\npragma solidity ^0.8.0;\n\nimport \"@openzeppelin/contracts/access/Ownable.sol\";\nimport \"@openzeppelin/contracts/security/ReentrancyGuard.sol\";\n\ninterface INameWrapper {\n    function setSubnodeRecord(\n        bytes32 parentNode,\n        string calldata label,\n        address owner,\n        address resolver,\n        uint64 ttl,\n        uint32 fuses,\n        uint64 expiry\n    ) external;\n    \n    function setApprovalForAll(address operator, bool approved) external;\n    function isApprovedForAll(address account, address operator) external view returns (bool);\n    function ownerOf(bytes32 node) external view returns (address);\n}\n\ncontract SubdomainRegister8 is Ownable, ReentrancyGuard {\n    INameWrapper public immutable nameWrapper;\n    address public immutable resolver;\n    bytes32 public immutable parentNode;\n    \n    uint256 public registrationFee;\n    address public feeRecipient;\n    \n    event SubdomainRegistered(bytes32 indexed parentNode, string label, address indexed owner);\n    event FeeUpdated(uint256 newFee);\n    event FeeRecipientUpdated(address newRecipient);\n    event ApprovalGranted(address operator);\n\n    constructor(\n        address _nameWrapper,\n        address _resolver,\n        bytes32 _parentNode,\n        uint256 _registrationFee,\n        address _feeRecipient\n    ) {\n        require(_nameWrapper != address(0), \"Invalid NameWrapper\");\n        require(_resolver != address(0), \"Invalid resolver\");\n        require(_feeRecipient != address(0), \"Invalid fee recipient\");\n\n        nameWrapper = INameWrapper(_nameWrapper);\n        resolver = _resolver;\n        parentNode = _parentNode;\n        registrationFee = _registrationFee;\n        feeRecipient = _feeRecipient;\n    }\n\n    // Call this once after deployment\n    function grantApproval() external onlyOwner {\n        nameWrapper.setApprovalForAll(address(this), true);\n        emit ApprovalGranted(address(this));\n    }\n\n    function register(string calldata label) external payable nonReentrant {\n        require(bytes(label).length > 0, \"Empty label\");\n        require(msg.value >= registrationFee, \"Insufficient fee\");\n\n        // Process payment securely\n        (bool feeSuccess, ) = feeRecipient.call{value: registrationFee}(\"\");\n        require(feeSuccess, \"Fee transfer failed\");\n\n        // Refund excess\n        uint256 refund = msg.value - registrationFee;\n        if (refund > 0) {\n            (bool refundSuccess, ) = payable(msg.sender).call{value: refund}(\"\");\n            require(refundSuccess, \"Refund failed\");\n        }\n\n        // Register subdomain with 1-year expiry\n        nameWrapper.setSubnodeRecord(\n            parentNode,\n            label,\n            msg.sender,\n            resolver,\n            0, // TTL\n            0, // Fuses\n            uint64(block.timestamp + 365 days)\n        );\n\n        emit SubdomainRegistered(parentNode, label, msg.sender);\n    }\n\n    // ADMIN FUNCTIONS\n    function setRegistrationFee(uint256 _fee) external onlyOwner {\n        registrationFee = _fee;\n        emit FeeUpdated(_fee);\n    }\n\n    function setFeeRecipient(address _recipient) external onlyOwner {\n        require(_recipient != address(0), \"Invalid address\");\n        feeRecipient = _recipient;\n        emit FeeRecipientUpdated(_recipient);\n    }\n\n    function withdraw() external onlyOwner {\n        (bool success, ) = owner().call{value: address(this).balance}(\"\");\n        require(success, \"Withdraw failed\");\n    }\n\n    // VIEW FUNCTIONS\n    function getParentOwner() external view returns (address) {\n        return nameWrapper.ownerOf(parentNode);\n    }\n    \n    function getContractBalance() external view returns (uint256) {\n        return address(this).balance;\n    }\n\n    function checkApproval() external view returns (bool) {\n        return nameWrapper.isApprovedForAll(owner(), address(this));\n    }\n}",
  "sourcePath": "/home/talha-dev/Desktop/BlockChain/contract/contracts/SubdomainRegister8.sol",
  "compiler": {
    "name": "solc",
    "version": "0.8.0+commit.c7dfd78e.Emscripten.clang"
  },
  "schemaVersion": "3.4.16",
  "updatedAt": "2025-04-03T10:08:15.442Z",
  "devdoc": {
    "kind": "dev",
    "methods": {
      "owner()": {
        "details": "Returns the address of the current owner."
      },
      "renounceOwnership()": {
        "details": "Leaves the contract without owner. It will not be possible to call `onlyOwner` functions. Can only be called by the current owner. NOTE: Renouncing ownership will leave the contract without an owner, thereby disabling any functionality that is only available to the owner."
      },
      "transferOwnership(address)": {
        "details": "Transfers ownership of the contract to a new account (`newOwner`). Can only be called by the current owner."
      }
    },
    "version": 1
  },
  "userdoc": {
    "kind": "user",
    "methods": {},
    "version": 1
  }
}