{
  "contractName": "SubdomainManager",
  "abi": [
    {
      "anonymous": false,
      "inputs": [
        {
          "indexed": false,
          "internalType": "string",
          "name": "subdomain",
          "type": "string"
        },
        {
          "indexed": true,
          "internalType": "address",
          "name": "buyer",
          "type": "address"
        }
      ],
      "name": "SubdomainPurchased",
      "type": "event"
    },
    {
      "inputs": [],
      "name": "PRICE",
      "outputs": [
        {
          "internalType": "uint256",
          "name": "",
          "type": "uint256"
        }
      ],
      "stateMutability": "view",
      "type": "function",
      "constant": true
    },
    {
      "inputs": [
        {
          "internalType": "string",
          "name": "",
          "type": "string"
        }
      ],
      "name": "subdomainOwner",
      "outputs": [
        {
          "internalType": "address",
          "name": "",
          "type": "address"
        }
      ],
      "stateMutability": "view",
      "type": "function",
      "constant": true
    },
    {
      "inputs": [
        {
          "internalType": "string",
          "name": "subdomain",
          "type": "string"
        }
      ],
      "name": "buySubdomain",
      "outputs": [],
      "stateMutability": "payable",
      "type": "function",
      "payable": true
    },
    {
      "inputs": [
        {
          "internalType": "string",
          "name": "subdomain",
          "type": "string"
        }
      ],
      "name": "isAvailable",
      "outputs": [
        {
          "internalType": "bool",
          "name": "",
          "type": "bool"
        }
      ],
      "stateMutability": "view",
      "type": "function",
      "constant": true
    }
  ],
  "bytecode": "0x608060405234801561000f575f80fd5b506107a48061001d5f395ff3fe60806040526004361061003e575f3560e01c80638d859f3e14610042578063965306aa1461006c578063c7325e04146100a8578063d1cdea2a146100e4575b5f80fd5b34801561004d575f80fd5b50610056610100565b604051610063919061037c565b60405180910390f35b348015610077575f80fd5b50610092600480360381019061008d91906104e2565b61010b565b60405161009f9190610543565b60405180910390f35b3480156100b3575f80fd5b506100ce60048036038101906100c991906104e2565b61017e565b6040516100db919061059b565b60405180910390f35b6100fe60048036038101906100f991906104e2565b6101c5565b005b662386f26fc1000081565b5f8073ffffffffffffffffffffffffffffffffffffffff165f836040516101329190610620565b90815260200160405180910390205f9054906101000a900473ffffffffffffffffffffffffffffffffffffffff1673ffffffffffffffffffffffffffffffffffffffff16149050919050565b5f818051602081018201805184825260208301602085012081835280955050505050505f915054906101000a900473ffffffffffffffffffffffffffffffffffffffff1681565b662386f26fc10000341461020e576040517f08c379a000000000000000000000000000000000000000000000000000000000815260040161020590610690565b60405180910390fd5b5f73ffffffffffffffffffffffffffffffffffffffff165f826040516102349190610620565b90815260200160405180910390205f9054906101000a900473ffffffffffffffffffffffffffffffffffffffff1673ffffffffffffffffffffffffffffffffffffffff16146102b8576040517f08c379a00000000000000000000000000000000000000000000000000000000081526004016102af906106f8565b60405180910390fd5b335f826040516102c89190610620565b90815260200160405180910390205f6101000a81548173ffffffffffffffffffffffffffffffffffffffff021916908373ffffffffffffffffffffffffffffffffffffffff1602179055503373ffffffffffffffffffffffffffffffffffffffff167fdab1b39ab82fa1cd290880ace17fa3442057dac71e22279f4d486ef3a84e1c1582604051610359919061074e565b60405180910390a250565b5f819050919050565b61037681610364565b82525050565b5f60208201905061038f5f83018461036d565b92915050565b5f604051905090565b5f80fd5b5f80fd5b5f80fd5b5f80fd5b5f601f19601f8301169050919050565b7f4e487b71000000000000000000000000000000000000000000000000000000005f52604160045260245ffd5b6103f4826103ae565b810181811067ffffffffffffffff82111715610413576104126103be565b5b80604052505050565b5f610425610395565b905061043182826103eb565b919050565b5f67ffffffffffffffff8211156104505761044f6103be565b5b610459826103ae565b9050602081019050919050565b828183375f83830152505050565b5f61048661048184610436565b61041c565b9050828152602081018484840111156104a2576104a16103aa565b5b6104ad848285610466565b509392505050565b5f82601f8301126104c9576104c86103a6565b5b81356104d9848260208601610474565b91505092915050565b5f602082840312156104f7576104f661039e565b5b5f82013567ffffffffffffffff811115610514576105136103a2565b5b610520848285016104b5565b91505092915050565b5f8115159050919050565b61053d81610529565b82525050565b5f6020820190506105565f830184610534565b92915050565b5f73ffffffffffffffffffffffffffffffffffffffff82169050919050565b5f6105858261055c565b9050919050565b6105958161057b565b82525050565b5f6020820190506105ae5f83018461058c565b92915050565b5f81519050919050565b5f81905092915050565b5f5b838110156105e55780820151818401526020810190506105ca565b5f8484015250505050565b5f6105fa826105b4565b61060481856105be565b93506106148185602086016105c8565b80840191505092915050565b5f61062b82846105f0565b915081905092915050565b5f82825260208201905092915050565b7f496e636f7272656374207061796d656e740000000000000000000000000000005f82015250565b5f61067a601183610636565b915061068582610646565b602082019050919050565b5f6020820190508181035f8301526106a78161066e565b9050919050565b7f537562646f6d61696e20616c72656164792074616b656e0000000000000000005f82015250565b5f6106e2601783610636565b91506106ed826106ae565b602082019050919050565b5f6020820190508181035f83015261070f816106d6565b9050919050565b5f610720826105b4565b61072a8185610636565b935061073a8185602086016105c8565b610743816103ae565b840191505092915050565b5f6020820190508181035f8301526107668184610716565b90509291505056fea264697066735822122010058b578fbe3326d8ee70c8f51faf77fda1161569b0d51c74fbad5357cd5d4564736f6c63430008140033",
  "immutableReferences": {},
  "source": "// SPDX-License-Identifier: MIT\npragma solidity ^0.8.20;\n\ncontract SubdomainManager {\n    mapping(string => address) public subdomainOwner;\n    uint256 public constant PRICE = 0.01 ether;\n\n    event SubdomainPurchased(string subdomain, address indexed buyer);\n\n    // Function to purchase/transfer a subdomain\n    function buySubdomain(string memory subdomain) external payable {\n        require(msg.value == PRICE, \"Incorrect payment\");\n        require(subdomainOwner[subdomain] == address(0), \"Subdomain already taken\");\n\n        subdomainOwner[subdomain] = msg.sender;\n        emit SubdomainPurchased(subdomain, msg.sender);\n    }\n\n    // Check if a subdomain is available\n    function isAvailable(string memory subdomain) external view returns (bool) {\n        return subdomainOwner[subdomain] == address(0);\n    }\n}\n",
  "sourcePath": "/home/talha-dev/Desktop/BlockChain/contract/contracts/SubdomainManager.sol",
  "compiler": {
    "name": "solc",
    "version": "0.8.20+commit.a1b79de6.Emscripten.clang"
  },
  "schemaVersion": "3.4.16",
  "updatedAt": "2025-03-25T07:08:05.634Z",
  "networkType": "ethereum",
  "devdoc": {
    "kind": "dev",
    "methods": {},
    "version": 1
  },
  "userdoc": {
    "kind": "user",
    "methods": {},
    "version": 1
  }
}